:100000000C942A001895000018950000189500001F
:10001000189500001895000018950000189500002C
:10002000189500001895000018950000189500001C
:10003000189500001895000018950000189500000C
:1000400018950000189500001895000018950000FC
:10005000189500008FE58DBFC8E3E0E24E2E84E0E6
:100060008EBFD4E0F4E05F2EA89584B7082E877F7A
:1000700084BF88E1992781BD91BDEEEFF3E0A0E652
:10008000B0E088278D933197E9F70E9458036624E2
:100090008FEF84BB889A899A80E090E0A7E6B0E071
:1000A0008D939C930E948203A9E6B0E00D9388276C
:1000B0008C93A9E6B0E00D911C91013050E015073A
:1000C00081E009F080E08F93A9E6B0E00D911C91EA
:1000D000043050E0150781E009F080E09F91892B02
:1000E0008F93A9E6B0E00D911C91053050E0150703
:1000F00081E009F080E09F91892B8F93A9E6B0E021
:100100000D911C91063050E0150781E009F080E068
:100110009F91892B8F93A9E6B0E00D911C91083037
:1001200050E0150781E009F080E09F91892B8F93C3
:10013000A9E6B0E00D911C91093050E0150781E06F
:1001400009F080E09F91892B8F93A9E6B0E00D9193
:100150001C910A3050E0150781E009F080E09F9182
:10016000892B8F93A9E6B0E00D911C910C3050E0E3
:10017000150781E009F080E09F91892B8F93A9E614
:10018000B0E00D911C910D3050E0150781E009F0B1
:1001900080E09F91892B8F93A9E6B0E00D911C918F
:1001A0000E3050E0150781E009F080E09F91892B27
:1001B000882311F40C940801EAE2F6E0A9E6B0E025
:1001C0008D919C91ABE6B0E00E94DB03ABE6B0E022
:1001D0008C91ADE6B0E08D9388278C93ADE6B0E0CE
:1001E0000E944803ABE6B0E00D911C910053104013
:1001F000A0E6B0E00D931C93A7E6B0E00D911C9132
:100200000F5F1F4FA7E6B0E00D931C930C941601EF
:10021000A9E6B0E00D911C91003050E0150711F0F7
:100220000C9416010E9450030C944C00A7E6B0E019
:100230000D911C91013050E0150711F00C94520003
:1002400080E090E0A7E6B0E08D939C930E9482034B
:10025000A9E6B0E00D9388278C93A9E6B0E00D9154
:100260001C91033050E0150781E009F080E08F9386
:10027000A9E6B0E00D911C91073050E0150781E030
:1002800009F080E09F91892B882311F40C946E0172
:10029000EAE2F6E0A9E6B0E08D919C91ABE6B0E031
:1002A0000E94DB03ABE6B0E08C91ADE6B0E08D934D
:1002B00088278C93ADE6B0E00E94480380916900E6
:1002C00080936400A7E6B0E00D911C910F5F1F4F73
:1002D000A7E6B0E00D931C930C949201A9E6B0E060
:1002E0000D911C91003050E0150711F00C947E0127
:1002F0000E9450030C944C000C949201A9E6B0E0CB
:100300000D911C91023050E0150711F00C949201F0
:100310000E944E03A8E0B4E0E0E6F0E00E94F4039F
:100320000E944603A7E6B0E00D911C91013050E019
:10033000150711F00C94260180E090E0A7E6B0E0EC
:100340008D939C930E948203A9E6B0E00D938827C9
:100350008C93A9E6B0E00D911C91013050E0150797
:1003600081E009F080E08F93A9E6B0E00D911C9147
:10037000043050E0150781E009F080E09F91892B5F
:100380008F93A9E6B0E00D911C91053050E0150760
:1003900081E009F080E09F91892B8F93A9E6B0E07E
:1003A0000D911C91063050E0150781E009F080E0C6
:1003B0009F91892B8F93A9E6B0E00D911C91083095
:1003C00050E0150781E009F080E09F91892B8F9321
:1003D000A9E6B0E00D911C91093050E0150781E0CD
:1003E00009F080E09F91892B8F93A9E6B0E00D91F1
:1003F0001C910A3050E0150781E009F080E09F91E0
:10040000892B8F93A9E6B0E00D911C910C3050E040
:10041000150781E009F080E09F91892B8F93A9E671
:10042000B0E00D911C910D3050E0150781E009F00E
:1004300080E09F91892B8F93A9E6B0E00D911C91EC
:100440000E3050E0150781E009F080E09F91892B84
:10045000882311F40C945802EAE2F6E0A9E6B0E031
:100460008D919C91ABE6B0E00E94DB03ABE6B0E07F
:100470008C91ADE6B0E08D9388278C93ADE6B0E02B
:100480000E944803ABE6B0E00D911C910053104070
:10049000A2E6B0E00D931C93A7E6B0E00D911C918D
:1004A0000F5F1F4FA7E6B0E00D931C930C946602FC
:1004B000A9E6B0E00D911C91003050E0150711F055
:1004C0000C9466020E9450030C944C00A7E6B0E026
:1004D0000D911C91013050E0150711F00C94A20110
:1004E00080E090E0A7E6B0E08D939C930E948203A9
:1004F000A9E6B0E00D9388278C93A9E6B0E00D91B2
:100500001C91023050E0150781E009F080E08F93E4
:1005100000916400033081E009F080E09F9189231D
:10052000882311F40C94BB02A0E6B0E00D911C915D
:10053000A2E6B0E04D915C91040F151FA5E6B0E076
:100540000D931C930E944E03A8E0B4E0E5E6F0E0B2
:100550000E94F4030E9446038CE00E947603A7E603
:10056000B0E00D911C910F5F1F4FA7E6B0E00D9317
:100570001C930C940703A9E6B0E00D911C91023086
:1005800050E0150781E009F080E08F93009164004E
:10059000073081E009F080E09F918923882311F4DE
:1005A0000C94F902A0E6B0E00D911C91A2E6B0E037
:1005B0004D915C910E94C103A5E6B0E00D931C93A0
:1005C0000E944E03A8E0B4E0E5E6F0E00E94F403E8
:1005D0000E9446038CE00E947603A7E6B0E00D91EE
:1005E0001C910F5F1F4FA7E6B0E00D931C930C9476
:1005F0000703A9E6B0E00D911C91003050E015070B
:1006000011F00C9407030E9450030C944C00A7E6D1
:10061000B0E00D911C91013050E0150711F00C94E1
:1006200076020C944C00F894FFCF630030003D003C
:100630002B003100320033002A0034003500360030
:10064000003700380039000005D00E94C10300FCCB
:100650000CD008950024E89457FF02C009D0689494
:1006600000F80BD010F80124089502D009D00895A5
:10067000509540954F5F5F4F0895E89417FF089598
:10068000009510950F5F1F4F68940895A8E0B4E09F
:100690008D91882311F01CD0FBCF089580EC26C0EB
:1006A00081E024D002D080E821C083E0992755C0A2
:1006B0008AEF90E00E94AD038FEF84BB899A889AFD
:1006C00088E314D013D08EE011D086E00FD00895C7
:1006D000909A85BB919AEF93FF93E0E6F0E00E9439
:1006E0007903FF91EF91919835D008959098F1CFCB
:1006F00008953197F1F70895689462F80895E894A1
:1007000062F8089500E18FEF8BBB8FE08ABB80EF2A
:100710008BBB1BD0CC9B00E0CD9B04E0CE9B08E0C4
:10072000CF9B0CE080EF8ABB8FE08BBB0ED0C89BC9
:1007300080E0C99B81E0CA9B82E0CB9B83E0080FED
:100740008FE090E00E94AD03089584E100008A9557
:10075000E9F7089581E090E000C0EF93FF93EE2762
:10076000E82BE92B31F0E8EEF3E03197F1F7019750
:10077000D1F7FF91EF91089501911191219130816D
:1007800008950F92B801469F8001479F100D569F14
:10079000100D0F900895C89531960020089591E0AE
:1007A00005C092E003C094E001C098E0F4DF0D9230
:1007B0009A95E1F70895880F991FE80FF91FF1CF77
:1007C000000F111F221F331F0895009510952095CB
:1007D00030950F5F1F4F2F4F3F4F089501911081AC
:1007E0000CC00E94BC030BC00191108117FF05C013
:1007F0003FEF2FEF04C0008111272227332737FF57
:1008000003C0E3DF8DE28D93CF92DF92EF92AA24B3
:10081000BB24CC24DD24EE2440E2EAE0FF2755E0AF
:1008200093E38081890F87FD9F7083FD907F891BF3
:1008300081935A95A9F7C4DFAA1CBB1CCC1CDD1CF4
:10084000EE1C4A9551F7E894EFE0FF2782910CD017
:10085000EB30E0F71EF068948A2D0AD088278D933C
:10086000EF90DF90CF900895982F829501D0892F37
:100870008F70805D26F0803309F4089568948D931D
:020880000895D9
:00000001FF
